{
  "_format": "hh-sol-artifact-1",
  "contractName": "VeryLightClient",
  "sourceName": "contracts/Very-Light-Client.sol",
  "abi": [
    {
      "inputs": [],
      "stateMutability": "nonpayable",
      "type": "constructor"
    },
    {
      "inputs": [
        {
          "internalType": "bytes",
          "name": "_txRaw",
          "type": "bytes"
        },
        {
          "internalType": "uint256",
          "name": "_txIndexInTrie",
          "type": "uint256"
        },
        {
          "internalType": "bytes32[][]",
          "name": "_txProof",
          "type": "bytes32[][]"
        },
        {
          "internalType": "uint256",
          "name": "_txIndexInBlock",
          "type": "uint256"
        }
      ],
      "name": "mint",
      "outputs": [],
      "stateMutability": "nonpayable",
      "type": "function"
    }
  ],
  "bytecode": "0x608060405234801561001057600080fd5b50610661806100206000396000f3fe608060405234801561001057600080fd5b506004361061002b5760003560e01c8063ef7e37bf14610030575b600080fd5b61004a60048036038101906100459190610458565b61004c565b005b60008460405160200161005f9190610571565b60405160208183030381529060405280519060200120905060007f07830e591c3bbd1f107cf422648e80f0b44e13067cb6ea4e7696a8b5a4c0138060001b90508082146100e1576040517f08c379a00000000000000000000000000000000000000000000000000000000081526004016100d89061060b565b60405180910390fd5b505050505050565b6000604051905090565b600080fd5b600080fd5b600080fd5b600080fd5b6000601f19601f8301169050919050565b7f4e487b7100000000000000000000000000000000000000000000000000000000600052604160045260246000fd5b61015082610107565b810181811067ffffffffffffffff8211171561016f5761016e610118565b5b80604052505050565b60006101826100e9565b905061018e8282610147565b919050565b600067ffffffffffffffff8211156101ae576101ad610118565b5b6101b782610107565b9050602081019050919050565b82818337600083830152505050565b60006101e66101e184610193565b610178565b90508281526020810184848401111561020257610201610102565b5b61020d8482856101c4565b509392505050565b600082601f83011261022a576102296100fd565b5b813561023a8482602086016101d3565b91505092915050565b6000819050919050565b61025681610243565b811461026157600080fd5b50565b6000813590506102738161024d565b92915050565b600067ffffffffffffffff82111561029457610293610118565b5b602082029050602081019050919050565b600080fd5b600067ffffffffffffffff8211156102c5576102c4610118565b5b602082029050602081019050919050565b6000819050919050565b6102e9816102d6565b81146102f457600080fd5b50565b600081359050610306816102e0565b92915050565b600061031f61031a846102aa565b610178565b90508083825260208201905060208402830185811115610342576103416102a5565b5b835b8181101561036b578061035788826102f7565b845260208401935050602081019050610344565b5050509392505050565b600082601f83011261038a576103896100fd565b5b813561039a84826020860161030c565b91505092915050565b60006103b66103b184610279565b610178565b905080838252602082019050602084028301858111156103d9576103d86102a5565b5b835b8181101561042057803567ffffffffffffffff8111156103fe576103fd6100fd565b5b80860161040b8982610375565b855260208501945050506020810190506103db565b5050509392505050565b600082601f83011261043f5761043e6100fd565b5b813561044f8482602086016103a3565b91505092915050565b60008060008060808587031215610472576104716100f3565b5b600085013567ffffffffffffffff8111156104905761048f6100f8565b5b61049c87828801610215565b94505060206104ad87828801610264565b935050604085013567ffffffffffffffff8111156104ce576104cd6100f8565b5b6104da8782880161042a565b92505060606104eb87828801610264565b91505092959194509250565b600081519050919050565b600081905092915050565b60005b8381101561052b578082015181840152602081019050610510565b8381111561053a576000848401525b50505050565b600061054b826104f7565b6105558185610502565b935061056581856020860161050d565b80840191505092915050565b600061057d8284610540565b915081905092915050565b600082825260208201905092915050565b7f74784861736846726f6d526177547820213d3d2074784861736846726f6d507260008201527f6f6f660000000000000000000000000000000000000000000000000000000000602082015250565b60006105f5602383610588565b915061060082610599565b604082019050919050565b60006020820190508181036000830152610624816105e8565b905091905056fea26469706673582212204f2d1c203952fb90be42e03a9de68a1e75355ad6a14c4e56cb2e68e3b6ae734e64736f6c63430008090033",
  "linkReferences": {},
  "deployedLinkReferences": {}
}